:1000000045C0000061C000005FC000005DC000008E
:100010005BC0000059C0000057C0000055C0000080
:1000200053C0000051C000004FC000004DC0000090
:100030004BC0000049C0000047C0000045C00000A0
:10004000AFC0000041C000008CC000003DC00000F7
:100050003BC0000039C0000037C0000035C00000C0
:1000600033C0000031C000002FC000002DC00000D0
:100070002BC0000029C0000027C0000025C00000E0
:1000800023C0000021C000001FC0000011241FBEBB
:10009000CFEFD0E1DEBFCDBF11E0A0E0B1E0ECE0FA
:1000A000F4E100E00BBF02C007900D92AA32B10745
:1000B000D9F722E0AAE2B1E001C01D92A939B20746
:1000C000E1F7CAD50C94040A9BCF2CB53DB5232B80
:1000D000E1F325E535E545E051E40E94A10920E082
:1000E00030E048E453E476D70E94BA08673881E0EC
:1000F000780734F46A3071052CF46AE070E002C0CD
:1001000066E871E0CB0108969093850080938400A7
:100110009BBD8ABD6850710970938700609386000B
:1001200079BD68BD0895CF9318BA88E848D783E4AD
:1001300046D7C1E0C8BB18BA80E941D780E03FD7B5
:10014000C8BB18BA80E23BD7C8BBCF91089597B11E
:10015000907F890F87B9369A349BFECF84B195B1D1
:1001600008951F920F920FB60F9211240BB60F92A3
:100170008F93EF93FF93E0915C0281E08E0F809369
:100180005C02F0E08CB1E65CFE4F8083FF91EF9162
:100190008F910F900BBE0F900FBE0F901F90189570
:1001A0001F920F920FB60F9211240BB60F924F921F
:1001B0005F926F927F928F929F92AF92BF92CF92F7
:1001C000DF92EF92FF922F933F934F935F936F9342
:1001D0007F938F939F93AF93BF93EF93FF93CF93AF
:1001E000DF9300D000D0CDB7DEB783E882BF21E037
:1001F00025BB18BA88EEE3D681E088BB18BA88E63A
:10020000DED6E2D6C82ED12CE12CF12CFE2CED2C22
:10021000DC2CCC24D9D6C82AFE2CED2CDC2CCC240A
:10022000D3D6C82AFE2CED2CDC2CCC24CDD691E0E4
:1002300098BBC82AF094E094D094C094C11CD11CFF
:10024000E11CF11CC0928702D0928802E0928902E0
:10025000F0928A0283E085BB6091870270918802E8
:100260008091890290918A02B8D720E030E042EA7A
:1002700058E418D79B01AC01ADD62BED3FE049E423
:1002800050E40E94A10960938C0270938D028093C8
:100290008E0290938F0220917A028DEC289F812DFF
:1002A0001124869586958695880F982F990F990F1A
:1002B000890F281340C060918C0270918D0280914B
:1002C0008E0290918F022091900230919102409184
:1002D0009202509193028090180190901901A09081
:1002E0001A01B0901B0175D66B017C0120E030E053
:1002F00040E251E4C501B4010E94A1099B01AC0197
:10030000C701B601CFD66093320170933301809359
:1003100034019093350180918C0290918D02A091CF
:100320008E02B0918F028093900290939102A093DD
:100330009202B093930280E00ADFBC01990F880B10
:10034000990B4BD760937B0270937C0280937D0264
:1003500090937E0260917B0270917C0280917D027D
:1003600090917E0220E030E040E85AE3EAD720E0B6
:1003700030E040EA50E4E5D724E63BE34FE150E4C7
:1003800028D620E030E040E251E4DBD7DC01CB01AD
:10039000B0588093480290934902A0934A02B093C8
:1003A0004B0290917A0289E2989F812D11248295C7
:1003B0008F70A4E68A9F90191124911109C1609150
:1003C0002E0170912F018091300190913101209187
:1003D0008C0230918D0240918E0250918F02F9D59E
:1003E00060933A0270933B0280933C0290933D02EB
:1003F00080913A0290913B02A0913C02B0913D0263
:1004000089839A83AB83BC83C0900401D09005019B
:10041000E0900601F090070160913A0270913B0272
:1004200080913C0290913D022091540230915502FE
:100430004091560250915702809000019090010126
:10044000A0900201B0900301409018015090190152
:1004500060901A0170901B01BCD5A501940171D761
:100460004B015C0120E030E048EC52E4C301B201F2
:1004700068D79B01AC01C501B40114D64B015C01E6
:10048000A701960169817A818B819C815AD79B0152
:10049000AC01C501B4019ED560937F0270938002C8
:1004A000809381029093820280913A0290913B0264
:1004B000A0913C02B0913D0280935402909355026A
:1004C000A0935602B093570260917F027091800210
:1004D000809181029091820220E030E840E254E471
:1004E0002CD718166CF480E090E8A0E2B4E4809376
:1004F0007F0290938002A0938102B09382021BC07E
:1005000060917F02709180028091810290918202BD
:1005100020E030E840E254ECC1D5882364F480E068
:1005200090E8A0E2B4EC80937F0290938002A093C5
:100530008102B093820260917F027091800280916B
:1005400081029091820220912101309122014091FB
:10055000230150912401F1D618168CF480912101C9
:1005600090912201A0912301B091240180937F02F8
:1005700090938002A0938102B093820227C0809161
:10058000210190912201A0912301B0912401209199
:100590007F02309180024091810250918202BC0121
:1005A000CD019058CAD618168CF4809121019091F3
:1005B0002201A0912301B0912401B05880937F02C1
:1005C00090938002A0938102B093820210927A02EB
:1005D00020917A028DEC289F812D11248695869595
:1005E0008695880F982F990F990F890F2813D3C1DB
:1005F00080917F0290918002A0918102B09182024D
:100600008093250190932601A0932701B0932801A0
:100610006091250170912601809127019091280118
:1006200020913201309133014091340150913501D4
:10063000D0D4609383027093840280938502909358
:1006400086028090830290908402A0908502B090F0
:100650008602C0900C01D0900D01E0900E01F09048
:100660000F01609158027091590280915A02909145
:100670005B02209108013091090140910A015091DB
:100680000B01409018015090190160901A01709070
:100690001B0157D669837A838B839C8320E030E0EB
:1006A00040E251E4C301B2014CD69B01AC01698127
:1006B0007A818B819C8145D62B013C01A701960153
:1006C000C501B4013ED69B01AC01C301B20182D485
:1006D0006093760270937702809378029093790208
:1006E00060918302709184028091850290918602CC
:1006F000209158023091590240915A0250915B0268
:1007000069D4609358027093590280935A0290936F
:100710005B026091760270917702809178029091ED
:10072000790228EB3EE145E050E407D618160CF0BC
:100730003FC060917602709177028091780290912B
:10074000790280900C0190900D01A0900E01B09064
:100750000F01C0905802D0905902E0905A02F090D8
:100760005B0228EB3EE145E050E433D4A50194015F
:1007700099D420E030E040E450E494D49B01AC01F3
:10078000C701B60126D46093580270935902809332
:100790005A0290935B0288EB9EE1A5E0B0E480935F
:1007A000760290937702A0937802B09379024EC0BC
:1007B000609176027091770280917802909179022F
:1007C00028EB3EE145E050EC69D488230CF03EC0B4
:1007D000609176027091770280917802909179020F
:1007E00080900C0190900D01A0900E01B0900F012F
:1007F000C0905802D0905902E0905A02F0905B02EB
:1008000028EB3EE145E050E4E5D3A50194014AD44C
:1008100020E030E040E450E445D49B01AC01C70146
:10082000B601D7D3609358027093590280935A024D
:1008300090935B0288EB9EE1A5E0B0EC809376029A
:1008400090937702A0937802B0937902809125016A
:1008500090912601A0912701B091280180934C022C
:1008600090934D02A0934E02B0934F0260915802B4
:100870007091590280915A0290915B0220914C0232
:1008800030914D0240914E0250914F0256D51816AC
:1008900084F480914C0290914D02A0914E02B0914F
:1008A0004F028093580290935902A0935A02B0933A
:1008B0005B0280914C0290914D02A0914E02B0914A
:1008C0004F02209158023091590240915A025091A2
:1008D0005B02BC01CD01905830D518168CF4809184
:1008E0004C0290914D02A0914E02B0914F02B0582F
:1008F0008093580290935902A0935A02B0935B02DE
:1009000060917602709177028091780290917902DD
:1009100020911D0130911E0140911F015091200135
:100920000CD518168CF480911D0190911E01A09198
:100930001F01B09120018093760290937702A093DB
:100940007802B093790227C080911D0190911E0119
:10095000A0911F01B0912001209176023091770281
:100960004091780250917902BC01CD019058E5D4B4
:1009700018168CF480911D0190911E01A0911F0109
:10098000B0912001B0588093760290937702A093A3
:100990007802B093790280917A02809176029091E8
:1009A0007702A0917802B0917902809350029093DF
:1009B0005102A0935202B093530260915002709181
:1009C000510280915202909153022091480230913D
:1009D000490240914A0250914B02FBD260933E0281
:1009E00070933F02809340029093410280903E02B8
:1009F00090903F02A0904002B090410240901401BC
:100A0000509015016090160170901701609194024A
:100A10007091950280919602909197022091100119
:100A2000309111014091120150911301C0901801B1
:100A3000D0901901E0901A01F0901B0182D4A70117
:100A400096017FD46B017C01A3019201C501B40121
:100A500078D49B01AC01C701B601BCD28BD3709393
:100A60002B0160932A0160913201709133018091D2
:100A7000340190913501E0902A01F0902B012FED87
:100A800030EE4BE85DE35DD44B015C01B701FF0C38
:100A9000880B990BA2D39B01AC01C501B4019AD27A
:100AA00069D370932B0160932A0160913E0270918B
:100AB0003F02809140029091410220919402309136
:100AC0009502409196025091970284D260939402CD
:100AD00070939502809396029093970280912A01D9
:100AE00090912B0149970CF43AC060912A017091C2
:100AF0002B018090140190901501A0901601B090E8
:100B00001701C0909402D0909502E0909602F09068
:100B10009702072E000C880B990B5FD320E030E082
:100B200040EC51E456D2A5019401BCD220E030E063
:100B300040E450E4B7D29B01AC01C701B60149D2F1
:100B4000609394027093950280939602909397021B
:100B500088E190E090932B0180932A0140C080911E
:100B60002A0190912B01883E9F4FCCF560912A017C
:100B700070912B018090140190901501A0901601A6
:100B8000B0901701C0909402D0909502E090960228
:100B9000F0909702072E000C880B990B1ED320E0D3
:100BA00030E040EC51E416D2A50194017BD220E064
:100BB00030E040E450E476D29B01AC01C701B601BD
:100BC00008D260939402709395028093960290935A
:100BD000970288EE9FEF90932B0180932A018091DA
:100BE0007A028F5F80937A0260912A0170912B01C3
:100BF000072E000C880B990BF0D267DA80912C013C
:100C000090912D01019690932D0180932C010F90CE
:100C10000F900F900F90DF91CF91FF91EF91BF91C7
:100C2000AF919F918F917F916F915F914F913F9184
:100C30002F91FF90EF90DF90CF90BF90AF909F905B
:100C40008F907F906F905F904F900F900BBE0F90A2
:100C50000FBE0F901F901895CF93DF93CDB7DEB7DF
:100C600064970FB6F894DEBF0FBECDBF8EEF8C83B6
:100C70008B838A8389834AD190D198D154D158D11A
:100C80006AD110928900109288001DBC1CBC60E0E3
:100C900070E0CB011ADA7CD146DA83E882BF78941F
:100CA000B12C0F2EF4E19F2EF02D0F2EF3E0AF2E7E
:100CB000F02D7E0185E1E80EF11C0F2EFEE5CF2E12
:100CC000F2E0DF2EF02D6894772471F88824839465
:100CD000BAC0809198028130E1F018F08230E1F1E1
:100CE000ADC0E0918B02F0E0E65CFE4F80818F3F6B
:100CF00069F480915D028F5F80935D0280915D0257
:100D0000843009F09BC08092980298C010925D02D6
:100D100095C0E0915D0281E08E0F80935D02F0E06E
:100D2000A0918B02B0E0A65CBE4F8C91E25AFD4FC1
:100D3000808380915D02883009F080C0F601958142
:100D400080911C01981303C07092980277C0109292
:100D5000980210925D0272C0E0915D0281E08E0FF8
:100D600080935D02F0E0A0918B02B0E0A65CBE4FE4
:100D70008C91E25AFD4F8083E0918B02F0E0E65CBB
:100D8000FE4F8081B80EF601948180915D02981328
:100D900046C08781B8123DC08681823009F039C0D3
:100DA000608571858285938518D220E030E04AE71E
:100DB00054E478D160932E0170932F018093300119
:100DC00090933101F601648575858685978505D2F6
:100DD00020E030E04AE754E465D16093210170934C
:100DE00022018093230190932401F6016089718987
:100DF00082899389F2D120E030E04AE754E452D16D
:100E000060931D0170931E0180931F019093200138
:100E1000D8981092980210925D02B12C0FC0F60182
:100E2000948180915D02981720F080915D02853158
:100E300028F01092980210925D02B12C80918B02E2
:100E40008F5F80938B0290918B0280915C0298134C
:100E500040CF80912C0190912D014497A4F38BB346
:100E60008C7F8BBB10922D0110922C0180911C0164
:100E70008E839D82AF82188660918C0270918D0264
:100E800080918E0290918F0220E030E04AE754E496
:100E900058D270D169877A878B879C87609132019D
:100EA00070913301809134019091350120E030E060
:100EB0004AE754E446D25ED16D877E878F87988B50
:100EC000609148027091490280914A0290914B02D0
:100ED00020E030E04AE754E434D24CD1698B7A8B7D
:100EE0008B8B9C8BFE01399681919885890F888721
:100EF000EE15FF05C9F78E010F5F1F4FF8018191B5
:100F00008F0159D00E151F05C9F79DCF8FEF8ABBF2
:100F100084BB88E081BB87E687BB8AE182B91BBAC4
:100F200087E088BB089584E083BF81E087BF089590
:100F300082EE8FBD81E18EBD8FE891E097BD86BDC9
:100F400010927900109278001BBC1ABC19BC18BC16
:100F50001DBC1CBC089582EB80938B0081E18093C3
:100F60008A008FE891E09093810080938000109236
:100F700083001092820010928700109286001092D7
:100F800085001092840010928900109288000895C4
:100F900080E487B986E886B908951BB888E98AB9DC
:100FA00086E08093950087E689B9089580E58DB93C
:100FB00081E08EB908955D9BFECF8CB908958FB9FD
:100FC000779BFECF8FB108951FB8779BFECF8FB16F
:100FD00008955058BB27AA270ED075C166D130F0AE
:100FE0006BD120F031F49F3F11F41EF45BC10EF47D
:100FF000E095E7FB51C1E92F77D180F3BA1762077B
:1010000073078407950718F071F49EF58FC10EF4ED
:10101000E0950B2EBA2FA02D0B01B90190010C0108
:10102000CA01A0011124FF27591B99F0593F50F420
:10103000503E68F11A16F040A22F232F342F442778
:10104000585FF3CF469537952795A795F040539570
:10105000C9F77EF41F16BA0B620B730B840BBAF040
:101060009150A1F0FF0FBB1F661F771F881FC2F7AB
:101070000EC0BA0F621F731F841F48F487957795BF
:101080006795B795F7959E3F08F0B3CF9395880F76
:1010900008F09927EE0F979587950895D9D008F411
:1010A00081E008950CD00FC107D140F0FED030F0A0
:1010B00021F45F3F19F0F0C0511139C1F3C014D1D0
:1010C00098F39923C9F35523B1F3951B550BBB270F
:1010D000AA2762177307840738F09F5F5F4F220FBC
:1010E000331F441FAA1FA9F333D00E2E3AF0E0E8B5
:1010F00030D091505040E695001CCAF729D0FE2F01
:1011000027D0660F771F881FBB1F26173707480792
:10111000AB07B0E809F0BB0B802DBF01FF27935848
:101120005F4F2AF09E3F510568F0B6C000C15F3F97
:10113000ECF3983EDCF3869577956795B795F79530
:101140009F5FC9F7880F911D9695879597F9089528
:10115000E1E0660F771F881FBB1F621773078407C4
:10116000BA0720F0621B730B840BBA0BEE1F88F7D3
:10117000E095089504D06894B111D9C00895BCD009
:1011800088F09F5790F0B92F9927B751A0F0D1F070
:10119000660F771F881F991F1AF0BA95C9F712C0FA
:1011A000B13081F0C3D0B1E00895C0C0672F782F6F
:1011B0008827B85F39F0B93FCCF386957795679566
:1011C000B395D9F73EF490958095709561957F4FD2
:1011D0008F4F9F4F0895E89409C097FB3EF4909578
:1011E0008095709561957F4F8F4F9F4F9923A9F000
:1011F000F92F96E9BB279395F6958795779567958F
:10120000B795F111F8CFFAF4BB0F11F460FF1BC0D2
:101210006F5F7F4F8F4F9F4F16C0882311F096E965
:1012200011C0772321F09EE8872F762F05C0662313
:1012300071F096E8862F70E060E02AF09A95660FCC
:10124000771F881FDAF7880F9695879597F9089585
:10125000990F0008550FAA0BE0E8FEEF16161706C7
:10126000E807F907C0F012161306E407F50798F02F
:10127000621B730B840B950B39F40A2661F0232B48
:10128000242B252B21F408950A2609F4A140A695C4
:101290008FEF811D811D089597F99F6780E870E0A9
:1012A00060E008959FEF80EC089500240A941616DC
:1012B000170618060906089500240A941216130644
:1012C000140605060895092E0394000C11F48823D2
:1012D00052F0BB0F40F4BF2B11F460FF04C06F5FEE
:1012E0007F4F8F4F9F4F089557FD9058440F551FC4
:1012F00059F05F3F71F04795880F97FB991F61F098
:101300009F3F79F087950895121613061406551F0E
:10131000F2CF4695F1DF08C0161617061806991F7A
:10132000F1CF86957105610508940895E894BB276F
:1013300066277727CB0197F908958ADF08F48FEFA6
:1013400008950BD0C0CFB1DF28F0B6DF18F0952399
:1013500009F0A2CFA7CF1124EACFC6DFA0F3959F53
:10136000D1F3950F50E0551F629FF001729FBB278C
:10137000F00DB11D639FAA27F00DB11DAA1F649F38
:101380006627B00DA11D661F829F2227B00DA11DEB
:10139000621F739FB00DA11D621F839FA00D611D71
:1013A000221F749F3327A00D611D231F849F600D92
:1013B000211D822F762F6A2F11249F5750408AF0CB
:1013C000E1F088234AF0EE0FFF1FBB1F661F771F57
:1013D000881F91505040A9F79E3F510570F05CCF97
:1013E000A6CF5F3FECF3983EDCF386957795679543
:1013F000B795F795E7959F5FC1F7FE2B880F911D75
:0C1400009695879597F90895F894FFCF12
:10140C00CDCCCC3DF90F4941CDCCCC3D713DEA3F23
:10141C00333B0A45B8AF533F6F12033A01000080CB
:0A142C003F0000803FCDCC4C3E0095
:00000001FF
